:020000040800F2
:1000000000C00020A1620008F3620008016300083C
:1000100011630008176300081D630008000000005A
:100020000000000000000000000000002363000842
:100030002F630008000000003B63000847630008CE
:10004000F1620008F1620008F1620008F162000844
:10005000F1620008F1620008F1620008F162000834
:10006000F1620008F1620008F1620008F162000824
:10007000F1620008F1620008F1620008F162000814
:10008000F1620008F1620008F1620008F162000804
:10009000F1620008F1620008F1620008F1620008F4
:1000A000F1620008F1620008F1620008F1620008E4
:1000B000F1620008F1620008390F0008F1620008DF
:1000C000F1620008F1620008F1620008F1620008C4
:1000D000F1620008355F000805140008F1620008AD
:1000E000F1620008F1620008F1620008F1620008A4
:1000F000F1620008F1620008F1620008F162000894
:10010000F1620008F1620008F1620008F162000883
:10011000F1620008F1620008F1620008F162000873
:10012000F1620008F1620008F1620008F162000863
:1001300000000000000000000000000000000000BF
:1001400000000000000000000000000000000000AF
:10015000000000000000000000000000000000009F
:10016000000000000000000000000000000000008F
:10017000000000000000000000000000000000007F
:10018000000000000000000000000000000000006F
:10019000000000000000000000000000000000005F
:1001A000000000000000000000000000000000004F
:1001B000000000000000000000000000000000003F
:1001C000000000000000000000000000000000002F
:1001D000000000000000000000000000000000001F
:0401E0005FF8E0F1F3
:1001E80010B5054C237833B9044B13B10448AFF369
:1001F80000800123237010BDCC0600200000000001
:1002080074B5000808B5034B1BB103490348AFF3A5
:10021800008008BD00000000D006002074B500086A
:10022800034613F8012B002AFBD1181A013870472E
:1002380081F0004102E000BF83F0004330B54FEA8F
:1002480041044FEA430594EA050F08BF90EA020FFC
:100258001FBF54EA000C55EA020C7FEA645C7FEA8F
:10026800655C00F0E2804FEA5454D4EB5555B8BFB2
:100278006D420CDD2C4480EA020281EA030382EA23
:10028800000083EA010180EA020281EA0303362DB5
:1002980088BF30BD11F0004F4FEA01314FF4801C88
:1002A8004CEA113102D0404261EB410113F0004F9A
:1002B8004FEA03334CEA133302D0524263EB430351
:1002C80094EA050F00F0A780A4F10104D5F1200EEF
:1002D8000DDB02FA0EFC22FA05F2801841F100014A
:1002E80003FA0EF2801843FA05F359410EE0A5F11E
:1002F80020050EF1200E012A03FA0EFC28BF4CF04F
:10030800020C43FA05F3C01851EBE37101F0004504
:1003180007D54FF0000EDCF1000C7EEB00006EEB11
:100328000101B1F5801F1BD3B1F5001F0CD349089B
:100338005FEA30004FEA3C0C04F101044FEA4452F2
:1003480012F5800F80F09A80BCF1004F08BF5FEA79
:10035800500C50F1000041EB045141EA050130BD59
:100368005FEA4C0C404141EB010111F4801FA4F1FC
:100378000104E9D191F0000F04BF01460020B1FA51
:1003880081F308BF2033A3F10B03B3F120020CDA89
:100398000C3208DD02F1140CC2F10C0201FA0CF067
:1003A80021FA02F10CE002F11402D8BFC2F1200CCC
:1003B80001FA02F120FA0CFCDCBF41EA0C01904082
:1003C800E41AA2BF01EB0451294330BD6FEA0404CB
:1003D8001F3C1CDA0C340EDC04F11404C4F12002B6
:1003E80020FA04F001FA02F340EA030021FA04F3C8
:1003F80045EA030130BDC4F10C04C4F1200220FA1F
:1004080002F001FA04F340EA0300294630BD21FA5C
:1004180004F0294630BD94F0000F83F4801306BF22
:1004280081F480110134013D4EE77FEA645C18BF16
:100438007FEA655C29D094EA050F08BF90EA020FAD
:1004480005D054EA000C04BF1946104630BD91EAA5
:10045800030F1EBF0021002030BD5FEA545C05D1A8
:100468004000494128BF41F0004130BD14F58004E7
:100478003CBF01F5801130BD01F0004545F0FE415B
:1004880041F470014FF0000030BD7FEA645C1ABF90
:10049800194610467FEA655C1CBF0B46024650EAC7
:1004A800013406BF52EA033591EA030F41F40021F3
:1004B80030BD00BF90F0000F04BF0021704730B579
:1004C8004FF4806404F132044FF000054FF000014E
:1004D80050E700BF90F0000F04BF0021704730B50F
:1004E8004FF4806404F1320410F0004548BF4042E4
:1004F8004FF000013EE700BF42004FEAE2014FEA39
:1005080031014FEA02701FBF12F07F4393F07F4F13
:1005180081F06051704792F0000F14BF93F07F4F45
:10052800704730B54FF4607401F0004521F0004188
:1005380020E700BF50EA010208BF704730B54FF00E
:1005480000050AE050EA010208BF704730B511F013
:10055800004502D5404261EB41014FF4806404F14B
:1005680032045FEA915C3FF4DCAE4FF003025FEACD
:10057800DC0C18BF03325FEADC0C18BF033202EB55
:10058800DC02C2F1200300FA03FC20FA02F001FAAF
:1005980003FE40EA0E0021FA02F11444C1E600BF4E
:1005A80070B54FF0FF0C4CF4E06C1CEA11541DBF01
:1005B8001CEA135594EA0C0F95EA0C0F00F0DEF8CC
:1005C8002C4481EA030621EA4C5123EA4C5350EAB1
:1005D800013518BF52EA033541F4801143F4801302
:1005E80038D0A0FB02CE4FF00005E1FB02E506F093
:1005F8000042E0FB03E54FF00006E1FB03569CF0E8
:10060800000F18BF4EF0010EA4F1FF04B6F5007FED
:1006180064F5407404D25FEA4E0E6D4146EB06065F
:1006280042EAC62141EA55514FEAC52040EA5E50E8
:100638004FEACE2EB4F1FD0C88BFBCF5E06F1ED892
:10064800BEF1004F08BF5FEA500E50F1000041EBC9
:10065800045170BD06F0004646EA010140EA020076
:1006680081EA0301B4EB5C04C2BFD4EB0C0541EA98
:10067800045170BD41F480114FF0000E013C00F3AD
:10068800AB8014F1360FDEBF002001F0004170BDD1
:10069800C4F10004203C35DA0C341BDC04F11404EA
:1006A800C4F1200500FA05F320FA04F001FA05F276
:1006B80040EA020001F0004221F0004110EBD37043
:1006C80021FA04F642EB06015EEA430E08BF20EA6F
:1006D800D37070BDC4F10C04C4F1200500FA04F312
:1006E80020FA05F001FA04F240EA020001F00041A4
:1006F80010EBD37041F100015EEA430E08BF20EA17
:10070800D37070BDC4F1200500FA05F24EEA020E5E
:1007180020FA04F301FA05F243EA020321FA04F08D
:1007280001F0004121FA04F220EA020000EBD37044
:100738005EEA430E08BF20EAD37070BD94F0000F44
:100748000FD101F00046400041EB010111F4801F78
:1007580008BF013CF7D041EA060195F0000F18BF29
:10076800704703F00046520043EB030313F4801F65
:1007780008BF013DF7D043EA0603704794EA0C0F1F
:100788000CEA135518BF95EA0C0F0CD050EA410635
:1007980018BF52EA4306D1D181EA030101F00041B2
:1007A8004FF0000070BD50EA410606BF10461946DA
:1007B80052EA430619D094EA0C0F02D150EA0136E6
:1007C80013D195EA0C0F05D152EA03361CBF104627
:1007D80019460AD181EA030101F0004141F0FE41C6
:1007E80041F470014FF0000070BD41F0FE4141F44A
:1007F800780170BD70B54FF0FF0C4CF4E06C1CEA4A
:1008080011541DBF1CEA135594EA0C0F95EA0C0FFE
:1008180000F0A7F8A4EB050481EA030E52EA0335B9
:100828004FEA013100F088804FEA03334FF08055DA
:1008380045EA131343EA12634FEA022245EA111507
:1008480045EA10654FEA00260EF000419D4208BFB8
:10085800964244F1FD0404F5407402D25B084FEA65
:100868003202B61A65EB03055B084FEA32024FF411
:1008780080104FF4002CB6EB020E75EB030E22BF6E
:10088800B61A754640EA0C005B084FEA3202B6EB2E
:10089800020E75EB030E22BFB61A754640EA5C00DD
:1008A8005B084FEA3202B6EB020E75EB030E22BF6D
:1008B800B61A754640EA9C005B084FEA3202B6EB6E
:1008C800020E75EB030E22BFB61A754640EADC002D
:1008D80055EA060E18D04FEA051545EA16754FEA8F
:1008E80006164FEAC30343EA52734FEAC2025FEAAD
:1008F8001C1CC0D111F4801F0BD141EA00014FF03C
:1009080000004FF0004CB6E711F4801F04BF01430C
:100918000020B4F1FD0C88BFBCF5E06F3FF6AFAE28
:10092800B5EB030C04BFB6EB020C5FEA500C50F1B8
:10093800000041EB045170BD0EF0004E4EEA11313B
:1009480014EB5C04C2BFD4EB0C0541EA045170BD42
:1009580041F480114FF0000E013C90E645EA060E86
:100968008DE60CEA135594EA0C0F08BF95EA0C0FB4
:100978003FF43BAF94EA0C0F0AD150EA01347FF4FC
:1009880034AF95EA0C0F7FF425AF104619462CE7D3
:1009980095EA0C0F06D152EA03353FF4FDAE104636
:1009A800194622E750EA410618BF52EA43067FF487
:1009B800C5AE50EA41047FF40DAF52EA43057FF417
:1009C800EBAE12E74FF0FF3C06E000BF4FF0010C22
:1009D80002E000BF4FF0010C4DF804CD4FEA410C86
:1009E8007FEA6C5C4FEA430C18BF7FEA6C5C1BD053
:1009F80001B050EA410C0CBF52EA430C91EA030FD4
:100A080002BF90EA020F0020704710F1000F91EA30
:100A1800030F58BF994208BF90422CBFD8176FEAFE
:100A2800E37040F0010070474FEA410C7FEA6C5CCC
:100A380002D150EA013C07D14FEA430C7FEA6C5CD3
:100A4800D6D152EA033CD3D05DF8040B704700BFFF
:100A58008446104662468C461946634600E000BF4D
:100A680001B5FFF7B7FF002848BF10F1000F01BD1F
:100A78004DF808EDFFF7F4FF0CBF012000205DF8EA
:100A880008FB00BF4DF808EDFFF7EAFF34BF01206F
:100A980000205DF808FB00BF4DF808EDFFF7E0FF08
:100AA80094BF012000205DF808FB00BF4DF808ED59
:100AB800FFF7CEFF94BF012000205DF808FB00BFC0
:100AC8004DF808EDFFF7C4FF34BF012000205DF8A2
:100AD80008FB00BF4FEA410C7FEA6C5C02D150EA88
:100AE800013C0AD14FEA430C7FEA6C5C02D152EA1E
:100AF800033C02D14FF0000070474FF001007047EF
:100B08004FEA410212F5001215D211D56FF478732D
:100B1800B3EB625212D94FEAC12343F0004343EAD0
:100B2800505311F0004F23FA02F018BF40427047AB
:100B38004FF00000704750EA013005D111F0004035
:100B480008BF6FF0004070474FF00000704700BFCB
:100B580053B94AB9002908BF00281CBF4FF0FF311C
:100B68004FF0FF3000F07AB9ADF1080C6DE904CE12
:100B780000F006F8DDF804E0DDE9022304B0704770
:100B88002DE9F0478C460E460446089D002B50D1AF
:100B98008A4217466CD9B2FA82FEBEF1000F0BD01A
:100BA800CEF1200C01FA0EF620FA0CFC02FA0EF730
:100BB8004CEA060C00FA0EF43A0CBCFBF2F9BBB294
:100BC80002FB19CC09FB03FA4FEA144848EA0C4621
:100BD800B2450AD9F61909F1FF3180F02581B245ED
:100BE80040F22281A9F102093E44A6EB0A06B6FBAF
:100BF800F2F002FB106600FB03F3A4B244EA0644D9
:100C0800A34209D9E41900F1FF3280F00B81A34215
:100C180040F2088102383C440021E41A40EA0940C5
:100C2800002D62D0002324FA0EF42C606B60BDE81E
:100C3800F0878B4207D9002D55D0002185E8410067
:100C48000846BDE8F087B3FA83F1002940F08F80A9
:100C5800B34202D3824200F2FC80841A66EB030698
:100C68000120B446002D40D085E81010BDE8F0877B
:100C780012B90127B7FBF2F7B7FA87FEBEF1000FEA
:100C880035D10121F61B4FEA174C1FFA87F8B6FB3E
:100C9800FCF20CFB126608FB02F0230C43EA064642
:100CA800B04207D9F61902F1FF3302D2B04200F27E
:100CB800D2801A46361AB6FBFCF00CFB106608FB0D
:100CC80000F8A3B243EA0644A04507D9E41900F1A5
:100CD800FF3302D2A04500F2B9801846A4EB0804FD
:100CE80040EA02409CE729462846BDE8F08707FA13
:100CF8000EF7CEF1200326FA03F24FEA174CB2FBA7
:100D0800FCF11FFA87F80CFB112206FA0EF620FAFE
:100D180003F301FB08F933431E0C46EA0246B145CA
:100D280000FA0EF409D9F61901F1FF3280F08C802F
:100D3800B14540F2898002393E44A6EB0906B6FB6C
:100D4800FCF00CFB106200FB08F99EB246EA024672
:100D5800B14507D9F61900F1FF3371D2B1456FD902
:100D680002383E44A6EB090640EA01418FE7C1F18B
:100D7800200722FA07F88B4048EA030326FA07F40B
:100D88004FEA134EB4FBFEF91FFA83FC0EFB19441D
:100D98008E4020FA07F809FB0CFA48EA06084FEAE1
:100DA800184646EA0444A24502FA01F200FA01F69E
:100DB80008D9E41809F1FF3044D2A24542D9A9F173
:100DC80002091C44A4EB0A04B4FBFEF00EFB104419
:100DD80000FB0CFC1FFA88F848EA0444A44507D92C
:100DE800E41800F1FF3E29D2A44527D902381C4453
:100DF80040EA0940A0FB0289A4EB0C0CCC45C24692
:100E0800CE4615D312D055B1B6EB0A036CEB0E06DD
:100E180006FA07F7CB401F43CE402F606E600021D3
:100E2800BDE8F0871046F7E68946DEE64645EAD291
:100E3800B8EB020A69EB030E0138E4E77046D7E71E
:100E480018468FE78146BDE7114676E702383C44ED
:100E580044E7084606E7023A3E442BE7704700BFDE
:100E680080B582B000AF0121042004F0CDFA4FF420
:100E78000043BB801023FB710323BB713B1D194644
:100E8800094803F0DFFF0121012004F0BDFA012128
:100E9800064804F0AFF84FF40041034804F09CF80A
:100EA80000BF0837BD4680BD000801400002300081
:100EB80080B586B000AF03460A46FB801346BB8068
:100EC800FFF7CEFF194804F051FB0121042004F07C
:100ED800B9FAFB883B82BB88BB8100237B82002355
:100EE800FB8107F10C031946104804F055FC012258
:100EF80001210E4804F0EBFC01210C4804F033FDFD
:100F08001E233B7204237B720423BB720123FB72F2
:100F180007F10803184603F05FFC0121034804F0B9
:100F2800B7FC00BF1837BD4680BD00BF00080040B1
:100F380080B500AF0121204804F0ECFC0346002BEB
:100F480033D01E4B1B78DBB2002B14D01C4B1B7804
:100F5800DBB20133DAB21A4B1A70194B1B78DBB2C9
:100F6800142B08D1164B00221A70164A154B1B6811
:100F780083F001031360144B1B78DBB2002B14D0F1
:100F8800124B1B78DBB20133DAB2104B1A700F4BDD
:100F98001B78DBB2322B08D10C4B00221A70094A9D
:100FA800084B1B6883F0010313600121024804F019
:100FB800DAFC00BF80BD00BF000800403C110020E3
:100FC800E8060020BC0121423D110020E90600206E
:100FD80080B483B000AF78607B681B889BB21846EA
:100FE8000C37BD4680BC704780B586B000AFF8604E
:100FF800B9601346FB800023FB820EE0FB8A5B008E
:10100800BA6813441B881946F86803F09DFDFB680D
:101018000233FB60FB8A0133FB82FA8AFB889A421F
:10102800ECD300BF1837BD4680BD000080B588B03E
:1010380000AFF860B9601346FB80FB68B3F1006F3E
:10104800C0F09380FB684B4A934200F28E8003F015
:1010580075FCFB6803F178433B613B69DB0AFB6184
:101068003B69C3F30A035B087B837B8BC3F580630F
:101078003B83FA883B8B9A4201D8FB883B83FB6908
:1010880003F58033DB024FF480623B49184600F0D9
:1010980075F80023FB820CE07A8BFB8A1344364AEE
:1010A80032F813304FF6FF72934207D1FB8A0133AF
:1010B800FB82FA8A3B8B9A42EED300E000BFFA8AA1
:1010C8003B8B9A4226D2FB6903F58033DB02184634
:1010D80003F054FC0023FB820DE0FA8A7B8B134457
:1010E800FA8A5200B9680A441188234A22F8131070
:1010F800FB8A0133FB82FA8A3B8B9A42EDD3FB6968
:1011080003F58033DB024FF480621B491846FFF772
:101118006BFF05E03B8B1A46B968F868FFF764FF78
:10112800FA883B8B9A421CD0FB690133FB61002390
:101138007B833B8B5B00BA681344BB603B8BFA68CC
:101148001344FB60FA883B8BD31AFB80FB88B3F50A
:10115800806F03D94FF480633B8390E7FB883B8320
:101168008DE700BF03F0FCFB00E000BF2037BD4661
:1011780080BD00BFFFFF0308941A002090B587B018
:1011880000AFF860B9601346FB800023FB820EE0D5
:10119800FB8A5B00BA68D418F868FFF719FF0346A2
:1011A8002380FB680233FB60FB8A0133FB82FA8AE7
:1011B800FB889A42ECD300BF1C37BD4690BD0000A7
:1011C80080B500AF044B1B68082219460348FFF797
:1011D8002DFF00BF80BD00BFEC06002004F8030807
:1011E80080B500AF082203490348FFF7C7FF00BFD7
:1011F80080BD00BFA822002004F8030880B500AF16
:10120800044B1B68142219460348FFF70FFF00BF61
:1012180080BD00BF901A002020F8030880B500AFF9
:10122800142203490348FFF7A9FF00BF80BD00BF90
:101238009422002020F8030880B582B000AF7860BF
:10124800642279680348FFF7F1FE00BF0837BD46FE
:1012580080BD00BF40F8030880B588B000AF786053
:10126800274804F091FB01214FF4003004F0EAF81C
:101278000121042004F0C8F80423BB830323BB77AF
:101288001823FB7707F11C0319461E4803F0DAFD03
:101298000823BB830423FB7707F11C03194619486D
:1012A80003F0D0FD26233B7200237B720023BB7220
:1012B8000123FB7207F10803184603F08DFA7B68D7
:1012C800FB6000233B8200237B820023BB82002338
:1012D8003B830C23FB8207F10C031946084804F0F2
:1012E800AFFB012240F22551054804F082FC0121A0
:1012F800034804F05FFC00BF2037BD4680BD00BF37
:10130800004400400008014080B584B000AF786018
:10131800324B01221A707868FFF79EFF01211020D6
:1013280004F072F80323BB811023FB730323BB7300
:1013380007F10C0319462A4803F084FD294B1B7852
:10134800DBB2002B45D10221254803F037FE4FF4CC
:101358007A7004F05DFD4FF47A7004F059FD4FF493
:101368007A7004F055FD02211D4803F035FE012175
:101378001B4803F023FE40F24C4004F049FD0121D4
:10138800174803F029FE4FF4FA7004F041FD00F00D
:1013980037FA4FF4FA7300221349144800F0FCF8A6
:1013A8004FF4FA7300221049114800F0F5F800F0E4
:1013B80061F90346002BC6D000F036FA00BF0D498C
:1013C8000D4800F089F9034683F00103DBB2002BD6
:1013D800F5D100BF1037BD4680BD00BF3D110020CC
:1013E80000100140541A002090B5000894B5000878
:1013F800A0B50008ACB50008B4B5000880B582B047
:1014080000AF40F22551404804F085FC0346002B0C
:1014180071D03D4804F045FC0346FB703B4BB3F8E4
:101428003E3AC3F30E039BB2B3F5806F0FDB384827
:1014380005F0B6F94FF480620021344805F030F920
:10144800324AB2F83E3A6FF30E03A2F83E3A2F4BF7
:10145800B3F83E3AC3F3C033DBB2002B13D12B4BA6
:10146800B3F83E3AC3F30E0399B24B1CC3F30E0311
:1014780098B2264AB2F83E3A60F30E03A2F83E3A12
:10148800224AFB785354FB785D2B34D15B211F48EB
:1014980005F0C1F90346002B2DD01C4B7B6002E000
:1014A8007B6801337B607B681B785B2BF8D17B689A
:1014B80001337B601749786805F0F2F90246134B4F
:1014C800C3F80028114BD3F800381349184600F028
:1014D800C9FB1149114805F0EBF80C4AB2F83E3A3D
:1014E8006FF30E03A2F83E3A084AB2F83E3A43F4C4
:1014F8000043A2F83E3A4021034804F0FCFB00BF39
:101508000837BD4680BD00BF00440040F0060020FB
:10151800C8B50008DCB50008F00A0020E0B50008EE
:1015280080B584B000AF786039607B68FB600023C9
:10153800FB7209E0FB680133FB60FB681B782C2B0E
:1015480002D1FB7A0133FB72FB7A012BF2D9FB68DB
:101558000133FB600F4BFA6803F6040311464FF49E
:101568000072184605F091F83968786805F098F91E
:10157800F860084AFB68C2F8043A3968002005F0A8
:101588008FF9F860034AFB68C2F8083A00BF1037C1
:10159800BD4680BDF006002080B584B000AFF8607D
:1015A800B9607A603B602F4AB2F83E3A6FF30E0397
:1015B800A2F83E3AFA682C492C4801F061FFBB6852
:1015C800002B04D17B68002B01D1012345E03B6847
:1015D8009BB2184604F01CFC224BB3F83E3AC3F306
:1015E8000E039BB21A461F4B002199541D492048EF
:1015F80005F05EF8BB68002B17D07B68002B14D071
:10160800B968184805F031F90346002B06D1796806
:10161800144805F02AF90346002B01D0012300E005
:10162800002303F00103DBB217E0BB68002B0AD0EC
:10163800B9680C4805F019F90346002B14BF0123BB
:101648000023DBB209E07968064805F00EF9034685
:10165800002B14BF01230023DBB218461037BD4608
:1016680080BD00BFF0060020F8B500080044004027
:1016780000B6000880B582B000AF0023FB7109E016
:101688004FF4FA73002210491048FFF785FFFB79E1
:101698000133FB71FB79092BF2D94FF4FA7300225D
:1016A80009490A48FFF778FF0346002B04D0084889
:1016B80005F076F8012303E0064805F071F80023E9
:1016C80018460837BD4680BD90B5000804B6000826
:1016D80008B6000824B6000880B59CB000AF786052
:1016E800396007F10C0364220021184604F0D8FF82
:1016F8004FF4FA7300220C490C48FFF74DFF07F12D
:101708000C003B687A680A4905F052F807F10C00AA
:101718004FF4E16300220449FFF73EFF03461846F1
:101728007037BD4680BD00BF90B500083CB60008C4
:101738004CB6000880B5A4B000AF7860002387F8E5
:101748008F3042F67B03FB6007F110037C220021F7
:10175800184604F0A5FF07F10C037968184605F050
:101768004BF807F10C031846FEF75AFD03461A46D4
:1017780007F10C03134420491A460B461B881380B3
:1017880018E097F88F3007F19002134413F8843C5F
:101798009BB21946194804F073FA00BF8021174814
:1017A80004F08EFA0346002BF8D097F88F300133F7
:1017B80087F88F3097F88F3007F19002134413F8A9
:1017C800843C7D2BDDD197F88F3007F190021344CC
:1017D80013F8843C9BB21946084804F051FA00BF3C
:1017E8008021064804F06CFA0346002BF8D000BFAD
:1017F8009037BD4680BD00BF68B600080044004071
:1018080080B500AF4FF47A7004F002FB0449054834
:1018180001F036FE4FF4FA7004F0FAFA00BF80BD0A
:101828006CB600080044004080B582B000AF0023C9
:101838007B600023FB7000BF4FF4FA7300227849E5
:101848007848FFF7A9FE034683F00103DBB2002BBB
:10185800F2D100BF4FF4FA73002271497248FFF7C2
:101868009BFE034683F00103DBB2002BF2D100BFDD
:101878004FF4FA7300226A496C48FFF78DFE03465D
:1018880083F00103DBB2002BF2D100BF4FF4FA73EF
:10189800002263496648FFF77FFE034683F0010391
:1018A800DBB2002BF2D100BF4FF4FA7300225C497F
:1018B8006048FFF771FE034683F00103DBB2002B9B
:1018C800F2D15D495D4804F0EBFF78605A49002089
:1018D80004F0E6FF78605849002004F0E1FF7860E2
:1018E8007968574804F0A5FF5549564804F0E0FECA
:1018F8005149002004F0D4FF78607968524804F018
:1019080098FF5149514804F0D3FE00BF4FF4FA73D1
:10191800002243494E48FFF73FFE034683F0010388
:10192800DBB2002BF2D1454B7B600023FB7002E059
:101938007B6801337B607B681B78392BF8D87B6820
:101948001B782F2BF4D90CE0FB785A1CFA70194637
:101958007B681A78394B0B4483F8242A7B68013357
:101968007B607B681B78392B03D87B681B782F2B0F
:10197800EAD87B681B785A2B03D87B681B78402BE6
:10198800E2D87B681B787A2B03D87B681B78602B9E
:10199800DAD83049304804F08BFE00BF4FF4FA73B0
:1019A80000221F492D48FFF7F7FD034683F0010386
:1019B800DBB2002BF2D100BF4FF4FA7300221849B2
:1019C8002748FFF7E9FD034683F00103DBB2002B4C
:1019D800F2D12449194804F048FF0346002B04D0EB
:1019E800164B332283F83C2A0FE01F49134804F0B2
:1019F8003CFF0346002B04D0104B362283F83C2AC8
:101A080003E00E4B392283F83C2A0C4B93F83C3AFE
:101A18001946164804F04CFE00BF0837BD4680BD85
:101A280090B5000870B6000890B60008A8B600087F
:101A3800B8B60008C8B60008DCB60008F0060020F2
:101A4800FC100020E0B6000808110020F4B60008D9
:101A580008B700081411002010B700081CB70008C8
:101A680028B7000834B700083CB7000844B7000896
:101A780080B582B000AF78600549786800F00AF850
:101A88000348FFF757FE00BF0837BD4680BD00BFBB
:101A9800F00C002080B586B000AF78603960002374
:101AA8007B6100233B610023FB737868FEF7B8FB7A
:101AB8000346BB60ABE07B697A6813441B789B08DC
:101AC800FB733B695A1C3A611A463B681344574AF0
:101AD8001168FA7B0A4412781A707B697A68134491
:101AE8001B781B01DBB203F03003FB737B695A1CC4
:101AF800BB689A4228DA7B6901337A6813441B78F9
:101B08001B09DBB25AB297F90F3013435BB2FB7370
:101B18003B695A1C3A611A463B681344434A1168A8
:101B2800FA7B0A4412781A707B6901337A68134485
:101B38001B789B00DBB203F03C03FB737B699A1CA8
:101B4800BB689A424BDA1CE03B695A1C3A611A4658
:101B58003B681344354A1168FA7B0A4412781A70B4
:101B68003B695A1C3A611A463B6813443D221A7075
:101B78003B695A1C3A611A463B6813443D221A7065
:101B88004AE07B6902337A6813441B789B09DBB20D
:101B98005AB297F90F3013435BB2FB733B695A1C77
:101BA8003A611A463B681344204A1168FA7B0A4492
:101BB80012781A707B6902337A6813441B7803F031
:101BC8003F03FB733B695A1C3A611A463B6813444E
:101BD800164A1168FA7B0A4412781A7014E03B69B5
:101BE8005A1C3A611A463B681344104A1168FA7B3A
:101BF8000A4412781A703B695A1C3A611A463B68C3
:101C080013443D221A7007E07B6903337B617A69CC
:101C1800BB689A42FFF64FAF3B693A68134400220B
:101C28001A70002318461837BD4680BD00000020F2
:101C380080B584B000AF78600B46FB70FB7819461E
:101C4800786804F0E8FDF860FB68002B02D14FF0DB
:101C5800FF3302E0FA687B68D31A18461037BD468E
:101C680080BD000080B588B000AF7860396000237F
:101C7800FB610023BB6107F1080300221A605A6068
:101C88009A60DA607BE0464B1868FB697A6813440F
:101C98001B781946FFF7CCFF0346BB60404B18681A
:101CA800FB6901337A6813441B781946FFF7C0FFB4
:101CB8000346FB60BB695A1CBA611A463B68134469
:101CC800BA68920051B2FA68121152B202F00302D5
:101CD80052B20A4352B2D2B21A70FB6902337A681E
:101CE80013441B783D2B44D02D4B1868FB690233F5
:101CF8007A6813441B781946FFF79AFF03463B613D
:101D0800BB695A1CBA611A463B681344FA68120147
:101D180051B23A69921052B202F00F0252B20A431B
:101D280052B2D2B21A70FB6903337A6813441B7833
:101D38003D2B20D01A4B1868FB6903337A6813448B
:101D48001B781946FFF774FF03467B61BB695A1C71
:101D5800BA611A463B6813443A69920151B27A69EA
:101D680052B202F03F0252B20A4352B2D2B21A70D1
:101D780002E000BF00E000BFFB690433FB61FB69C0
:101D88007A6813441B78002B7FF47DAFBB693A68EF
:101D9800134400221A70002318462037BD4680BD20
:101DA8000000002080B483B000AF78607B68002218
:101DB8001A607B6800225A607B68084A9A607B68D0
:101DC800074ADA607B68074A1A617B68064A5A61E3
:101DD80000BF0C37BD4680BC704700BF0123456774
:101DE80089ABCDEFFEDCBA987654321080B588B056
:101DF80000AFF860B9607A600023FB610023BB6123
:101E080000237B61FB681B68DB0803F03F03BB61B1
:101E1800BB69C3F140037B61FB681A687B68DB0020
:101E28001A44FB681A60FB681A687B68DB009A42F0
:101E380004D2FB685B685A1CFB685A60FB685A68E6
:101E48007B685B0F1A44FB685A607A687B699A4220
:101E580029D3BB691833FA6813447A69B9681846F4
:101E680004F013FCFB6803F10802FB6818331946F9
:101E7800104600F0E7F87B69FB610BE0FB6803F1B3
:101E88000800BA68FB691344194600F0DBF8FB69DF
:101E98004033FB61FB6903F140027B689A42EDD94C
:101EA8000023BB6101E00023FB61BB691833FA68BA
:101EB800D018BA68FB69D1187A68FB69D31A1A4630
:101EC80004F0E3FB00BF2037BD4680BD80B586B077
:101ED80000AF7860396000237B6100233B617B6839
:101EE8001B68DB0803F03F037B617B69372B03D852
:101EF8007B69C3F1380302E07B69C3F178033B6176
:101F0800796807F108030822184600F019F83A69B9
:101F18000A497868FFF76AFF07F10803082219469B
:101F28007868FFF763FF7B68083310221946386822
:101F380000F006F800BF1837BD4680BD0400002039
:101F480080B487B000AFF860B9607A6000237B6125
:101F580000233B6133E0FA683B6913447A699200D5
:101F6800B9680A441268D2B21A703B690133FA6838
:101F780013447A699200B9680A441268120AD2B204
:101F88001A703B690233FA6813447A699200B96897
:101F98000A441268120CD2B21A703B690333FA6809
:101FA80013447A699200B9680A441268120ED2B2D0
:101FB8001A707B6901337B613B6904333B613A6981
:101FC8007B689A42C7D300BF1C37BD4680BC7047A8
:101FD80080B487B000AFF860B9607A6000237B6195
:101FE80000233B6125E07B699B00FA681344B968CC
:101FF8003A690A44127810463A690132B9680A44C3
:102008001278120240EA02013A690232B8680244C0
:102018001278120411433A690332B86802441278FC
:1020280012060A431A607B6901337B613B690433FA
:102038003B613A697B689A42D5D300BF1C37BD46DD
:1020480080BC704780B5C6B000AF3B1D18603B46EA
:1020580019603B1D1B681B68C7F814313B1D1B68C2
:102068005B68C7F810313B1D1B689B68C7F80C31CB
:102078003B1D1B68DB68C7F808313B4607F10800C1
:1020880040221968FFF7A4FFD7F81021D7F80C31C0
:102098001A40D7F81031D943D7F808310B401A4302
:1020A80007F108031B681A44D7F814311A44F14B96
:1020B8001344C7F81431D7F814314FEA7363C7F8DB
:1020C8001431D7F81421D7F810311344C7F8143154
:1020D800D7F81421D7F810311A40D7F81431D9435A
:1020E800D7F80C310B401A4307F108035B681A4410
:1020F800D7F808311A44E04B1344C7F80831D7F829
:1021080008314FEA3353C7F80831D7F80821D7F810
:1021180014311344C7F80831D7F80821D7F8143117
:102128001A40D7F80831D943D7F810310B401A4371
:1021380007F108039B681A44D7F80C311A44CF4BAF
:102148001344C7F80C31D7F80C314FEAF333C7F80A
:102158000C31D7F80C21D7F808311344C7F80C31E3
:10216800D7F80C21D7F808311A40D7F80C31D943E1
:10217800D7F814310B401A4307F10803DB681A44F7
:10218800D7F810311A44BE4B1344C7F81031D7F8AA
:1021980010314FEAB323C7F81031D7F81021D7F818
:1021A8000C311344C7F81031D7F81021D7F80C3187
:1021B8001A40D7F81031D943D7F808310B401A43E1
:1021C80007F108031B691A44D7F814311A44AD4BB8
:1021D8001344C7F81431D7F814314FEA7363C7F8BA
:1021E8001431D7F81421D7F810311344C7F8143133
:1021F800D7F81421D7F810311A40D7F81431D94339
:10220800D7F80C310B401A4307F108035B691A44ED
:10221800D7F808311A449C4B1344C7F80831D7F84B
:1022280008314FEA3353C7F80831D7F80821D7F8EF
:1022380014311344C7F80831D7F80821D7F81431F6
:102248001A40D7F80831D943D7F810310B401A4350
:1022580007F108039B691A44D7F80C311A448B4BD1
:102268001344C7F80C31D7F80C314FEAF333C7F8E9
:102278000C31D7F80C21D7F808311344C7F80C31C2
:10228800D7F80C21D7F808311A40D7F80C31D943C0
:10229800D7F814310B401A4307F10803DB691A44D5
:1022A800D7F810311A447A4B1344C7F81031D7F8CD
:1022B80010314FEAB323C7F81031D7F81021D7F8F7
:1022C8000C311344C7F81031D7F81021D7F80C3166
:1022D8001A40D7F81031D943D7F808310B401A43C0
:1022E80007F108031B6A1A44D7F814311A44694BDA
:1022F8001344C7F81431D7F814314FEA7363C7F899
:102308001431D7F81421D7F810311344C7F8143111
:10231800D7F81421D7F810311A40D7F81431D94317
:10232800D7F80C310B401A4307F108035B6A1A44CB
:10233800D7F808311A44584B1344C7F80831D7F86E
:1023480008314FEA3353C7F80831D7F80821D7F8CE
:1023580014311344C7F80831D7F80821D7F81431D5
:102368001A40D7F80831D943D7F810310B401A432F
:1023780007F108039B6A1A44D7F80C311344A3F5F4
:1023880024434F3BC7F80C31D7F80C314FEAF333ED
:10239800C7F80C31D7F80C21D7F808311344C7F81F
:1023A8000C31D7F80C21D7F808311A40D7F80C317E
:1023B800D943D7F814310B401A4307F10803DB6AF5
:1023C8001A44D7F810311A44344B1344C7F8103163
:1023D800D7F810314FEAB323C7F81031D7F81021D6
:1023E800D7F80C311344C7F81031D7F81021D7F8B3
:1023F8000C311A40D7F81031D943D7F808310B40BF
:102408001A4307F108031B6B1A44D7F814311A440E
:10241800234B1344C7F81431D7F814314FEA7363C8
:10242800C7F81431D7F81421D7F810311344C7F876
:102438001431D7F81421D7F810311A40D7F81431CD
:10244800D943D7F80C310B401A4307F108035B6BEB
:102458001A44D7F808311A44124B1344C7F8083104
:10246800D7F808314FEA3353C7F80831D7F80821AD
:102478001AE000BF78A46AD756B7C7E8DB702024F3
:10248800EECEBDC1AF0F7CF52AC68747134630A8EC
:10249800019546FDD8988069AFF7448BBED75C8913
:1024A8002211906B937198FDD7F814311344C7F833
:1024B8000831D7F80821D7F814311A40D7F808316D
:1024C800D943D7F810310B401A4307F108039B6B27
:1024D8001A44D7F80C311A44F04B1344C7F80C319E
:1024E800D7F80C314FEAF333C7F80C31D7F80C2181
:1024F800D7F808311344C7F80C31D7F80C21D7F8AE
:1025080008311A40D7F80C31D943D7F814310B40A9
:102518001A4307F10803DB6B1A44D7F810311A4441
:10252800DF4B1344C7F81031D7F810314FEAB32303
:10253800C7F81031D7F81021D7F80C311344C7F871
:102548001031D7F81021D7F808311A40D7F80831D8
:10255800D943D7F80C310B401A4307F108035B68DD
:102568001A44D7F814311A44CE4B1344C7F814311F
:10257800D7F814314FEAF363C7F81431D7F81421A8
:10258800D7F810311344C7F81431D7F81421D7F805
:102598000C311A40D7F80C31D943D7F810310B4019
:1025A8001A4307F108039B691A44D7F808311A44FB
:1025B800BD4B1344C7F80831D7F808314FEAF35335
:1025C800C7F80831D7F80821D7F814311344C7F8E9
:1025D8000831D7F80821D7F810311A40D7F8103148
:1025E800D943D7F814310B401A4307F10803DB6AC3
:1025F8001A44D7F80C311A44AC4B1344C7F80C31C1
:10260800D7F80C314FEAB343C7F80C31D7F80C218F
:10261800D7F808311344C7F80C31D7F80C21D7F88C
:1026280014311A40D7F81431D943D7F808310B4080
:102638001A4307F108031B681A44D7F810311A44E3
:102648009B4B1344C7F81031D7F810314FEA333396
:10265800C7F81031D7F81021D7F80C311344C7F850
:102668001031D7F81021D7F808311A40D7F80831B7
:10267800D943D7F80C310B401A4307F108035B69BB
:102688001A44D7F814311A448A4B1344C7F8143142
:10269800D7F814314FEAF363C7F81431D7F8142187
:1026A800D7F810311344C7F81431D7F81421D7F8E4
:1026B8000C311A40D7F80C31D943D7F810310B40F8
:1026C8001A4307F108039B6A1A44D7F808311A44D9
:1026D800794B1344C7F80831D7F808314FEAF35358
:1026E800C7F80831D7F80821D7F814311344C7F8C8
:1026F8000831D7F80821D7F810311A40D7F8103127
:10270800D943D7F814310B401A4307F10803DB6BA0
:102718001A44D7F80C311A44684B1344C7F80C31E3
:10272800D7F80C314FEAB343C7F80C31D7F80C216E
:10273800D7F808311344C7F80C31D7F80C21D7F86B
:1027480014311A40D7F81431D943D7F808310B405F
:102758001A4307F108031B691A44D7F810311A44C1
:10276800574B1344C7F81031D7F810314FEA3333B9
:10277800C7F81031D7F81021D7F80C311344C7F82F
:102788001031D7F81021D7F808311A40D7F8083196
:10279800D943D7F80C310B401A4307F108035B6A99
:1027A8001A44D7F814311A44464B1344C7F8143165
:1027B800D7F814314FEAF363C7F81431D7F8142166
:1027C800D7F810311344C7F81431D7F81421D7F8C3
:1027D8000C311A40D7F80C31D943D7F810310B40D7
:1027E8001A4307F108039B6B1A44D7F808311A44B7
:1027F800354B1344C7F80831D7F808314FEAF3537B
:10280800C7F80831D7F80821D7F814311344C7F8A6
:102818000831D7F80821D7F810311A40D7F8103105
:10282800D943D7F814310B401A4307F10803DB6882
:102838001A44D7F80C311A44244B1344C7F80C3106
:10284800D7F80C314FEAB343C7F80C31D7F80C214D
:10285800D7F808311344C7F80C31D7F80C21D7F84A
:1028680014311A40D7F81431D943D7F808310B403E
:102878001A4307F108031B6A1A44D7F810311A449F
:10288800134B1344C7F81031D7F810314FEA3333DC
:10289800C7F81031D7F810211CE000BF8E4379A685
:1028A8002108B44962251EF640B340C0515A5E263D
:1028B800AAC7B6E95D102FD65314440281E6A1D801
:1028C800C8FBD3E7E6CDE121D60737C3870DD5F49A
:1028D800ED145A45D7F80C311344C7F81031D7F81E
:1028E8001021D7F808311A40D7F80831D943D7F85A
:1028F8000C310B401A4307F108035B6B1A44D7F8F5
:1029080014311A44EF4B1344C7F81431D7F8143173
:102918004FEAF363C7F81431D7F81421D7F8103108
:102928001344C7F81431D7F81421D7F80C311A40DA
:10293800D7F80C31D943D7F810310B401A4307F1B7
:1029480008039B681A44D7F808311A44DE4B13442D
:10295800C7F80831D7F808314FEAF353C7F80831F8
:10296800D7F80821D7F814311344C7F80831D7F835
:102978000821D7F810311A40D7F81031D943D7F8C1
:1029880014310B401A4307F10803DB691A44D7F8DE
:102998000C311A44CD4B1344C7F80C31D7F80C311D
:1029A8004FEAB343C7F80C31D7F80C21D7F80831F0
:1029B8001344C7F80C31D7F80C21D7F814311A4052
:1029C800D7F81431D943D7F808310B401A4307F127
:1029D80008031B6B1A44D7F810311A44BC4B134434
:1029E800C7F81031D7F810314FEA3333C7F8103130
:1029F800D7F81021D7F80C311344C7F81031D7F89D
:102A08001021D7F80C315A40D7F808315A4007F14D
:102A180008035B691A44D7F814311344A3F5B823A3
:102A2800A3F2BE63C7F81431D7F814314FEA3373F1
:102A3800C7F81431D7F81421D7F810311344C7F860
:102A48001431D7F81421D7F810315A40D7F80C317F
:102A58005A4007F108031B6A1A44D7F808311A4488
:102A68009C4B1344C7F80831D7F808314FEA735321
:102A7800C7F80831D7F80821D7F814311344C7F834
:102A88000831D7F80821D7F814315A40D7F810314F
:102A98005A4007F10803DB6A1A44D7F80C311A4484
:102AA8008D4B1344C7F80C31D7F80C314FEA334338
:102AB800C7F80C31D7F80C21D7F808311344C7F8F8
:102AC8000C31D7F80C21D7F808315A40D7F814310F
:102AD8005A4007F108039B6B1A44D7F810311A447F
:102AE8007E4B1344C7F81031D7F810314FEA7323DF
:102AF800C7F81031D7F81021D7F80C311344C7F8AC
:102B08001031D7F81021D7F80C315A40D7F80831CE
:102B18005A4007F108035B681A44D7F814311A447D
:102B28006F4B1344C7F81431D7F814314FEA337395
:102B3800C7F81431D7F81421D7F810311344C7F85F
:102B48001431D7F81421D7F810315A40D7F80C317E
:102B58005A4007F108031B691A44D7F808311A4488
:102B6800604B1344C7F80831D7F808314FEA73535C
:102B7800C7F80831D7F80821D7F814311344C7F833
:102B88000831D7F80821D7F814315A40D7F810314E
:102B98005A4007F10803DB691A44D7F80C311A4484
:102BA800514B1344C7F80C31D7F80C314FEA334373
:102BB800C7F80C31D7F80C21D7F808311344C7F8F7
:102BC8000C31D7F80C21D7F808315A40D7F814310E
:102BD8005A4007F108039B6A1A44D7F810311A447F
:102BE800424B1344C7F81031D7F810314FEA73231A
:102BF800C7F81031D7F81021D7F80C311344C7F8AB
:102C08001031D7F81021D7F80C315A40D7F80831CD
:102C18005A4007F108035B6B1A44D7F814311A4479
:102C2800334B1344C7F81431D7F814314FEA3373D0
:102C3800C7F81431D7F81421D7F810311344C7F85E
:102C48001431D7F81421D7F810315A40D7F80C317D
:102C58005A4007F108031B681A44D7F808311A4488
:102C6800244B1344C7F80831D7F808314FEA735397
:102C7800C7F80831D7F80821D7F814311344C7F832
:102C88000831D7F80821D7F814315A40D7F810314D
:102C98005A4007F10803DB681A44D7F80C311A4484
:102CA800154B1344C7F80C31D7F80C314FEA3343AE
:102CB800C7F80C31D7F80C21D7F808311344C7F8F6
:102CC8000C311BE005E9E3A9F8A3EFFCD9026F6713
:102CD8008A4C2A8D81F6718722619D6D0C38E5FD3D
:102CE80044EABEA4A9CFDE4B604BBBF670BCBFBEA6
:102CF800C67E9B28FA27A1EA8530EFD4D7F80C21A5
:102D0800D7F808315A40D7F814315A4007F1080368
:102D18009B691A44D7F810311A44F04B1344C7F88A
:102D28001031D7F810314FEA7323C7F81031D7F8AC
:102D38001021D7F80C311344C7F81031D7F81021F7
:102D4800D7F80C315A40D7F808315A4007F1080330
:102D58005B6A1A44D7F814311A44E14B1344C7F894
:102D68001431D7F814314FEA3373C7F81431D7F850
:102D78001421D7F810311344C7F81431D7F81421A7
:102D8800D7F810315A40D7F80C315A4007F10803E8
:102D98001B6B1A44D7F808311A44D24B1344C7F8AE
:102DA8000831D7F808314FEA7353C7F80831D7F814
:102DB8000821D7F814311344C7F80831D7F8082187
:102DC800D7F814315A40D7F810315A4007F10803A0
:102DD800DB6B1A44D7F80C311A44C34B1344C7F8B9
:102DE8000C31D7F80C314FEA3343C7F80C31D7F818
:102DF8000C21D7F808311344C7F80C31D7F80C2147
:102E0800D7F808315A40D7F814315A4007F1080367
:102E18009B681A44D7F810311A44B44B1344C7F8C6
:102E28001031D7F810314FEA7323C7F81031D7F8AB
:102E38001021D7F80C311344C7F81031D7F80831EE
:102E4800DA43D7F810311A43D7F80C315A4007F152
:102E580008031B681A44D7F814311A44A44B1344C6
:102E6800C7F81431D7F814314FEAB363C7F81431EF
:102E7800D7F81421D7F810311344C7F81431D7F80C
:102E88000C31DA43D7F814311A43D7F810315A40C5
:102E980007F10803DB691A44D7F808311A44954B3F
:102EA8001344C7F80831D7F808314FEAB353C7F8C5
:102EB8000831D7F80821D7F814311344C7F8083176
:102EC800D7F81031DA43D7F808311A43D7F8143154
:102ED8005A4007F108039B6B1A44D7F80C311A447F
:102EE800854B1344C7F80C31D7F80C314FEA7343BC
:102EF800C7F80C31D7F80C21D7F808311344C7F8B4
:102F08000C31D7F81431DA43D7F80C311A43D7F813
:102F180008315A4007F108035B691A44D7F81031A1
:102F28001A44764B1344C7F81031D7F810314FEADA
:102F3800F323C7F81031D7F81021D7F80C31134410
:102F4800C7F81031D7F80831DA43D7F810311A43E7
:102F5800D7F80C315A4007F108031B6B1A44D7F80D
:102F680014311A44664B1344C7F81431D7F8143196
:102F78004FEAB363C7F81431D7F81421D7F81031E2
:102F88001344C7F81431D7F80C31DA43D7F81431A1
:102F98001A43D7F810315A4007F10803DB681A447E
:102FA800D7F808311A44574B1344C7F80831D7F8F3
:102FB80008314FEAB353C7F80831D7F80821D7F8D2
:102FC80014311344C7F80831D7F81031DA43D7F869
:102FD80008311A43D7F814315A4007F108039B6A9D
:102FE8001A44D7F80C311344A3F58013A3F683339E
:102FF800C7F80C31D7F80C314FEA7343C7F80C31D6
:10300800D7F80C21D7F808311344C7F80C31D7F892
:103018001431DA43D7F80C311A43D7F808315A403B
:1030280007F108035B681A44D7F810311A44364B85
:103038001344C7F81031D7F810314FEAF323C7F813
:103048001031D7F81021D7F80C311344C7F81031D4
:10305800D7F80831DA43D7F810311A43D7F80C31CA
:103068005A4007F108031B6A1A44D7F814311A4466
:10307800264B1344C7F81431D7F814314FEAB36319
:10308800C7F81431D7F81421D7F810311344C7F80A
:103098001431D7F80C31DA43D7F814311A43D7F87A
:1030A80010315A4007F10803DB6B1A44D7F808318E
:1030B8001A44174B1344C7F80831D7F808314FEAB8
:1030C800B353C7F80831D7F80821D7F81431134497
:1030D800C7F80831D7F81031DA431BE0051D88041A
:1030E80039D0D4D9E599DBE6F87CA21F6556ACC483
:1030F800442229F497FF2A43A72394AB39A093FCD1
:10310800C3595B6592CC0C8FD15D84854F7EA86FC7
:10311800E0E62CFED7F808311A43D7F814315A40A4
:1031280007F108039B691A44D7F80C311A44724B0B
:103138001344C7F80C31D7F80C314FEA7343C7F87A
:103148000C31D7F80C21D7F808311344C7F80C31E3
:10315800D7F81431DA43D7F80C311A43D7F80831C5
:103168005A4007F108035B6B1A44D7F810311A4428
:10317800624B1344C7F81031D7F810314FEAF323E4
:10318800C7F81031D7F81021D7F80C311344C7F815
:103198001031D7F80831DA43D7F810311A43D7F885
:1031A8000C315A4007F108031B691A44D7F8143147
:1031B8001A44534B1344C7F81431D7F814314FEA63
:1031C800B363C7F81431D7F81421D7F81031134472
:1031D800C7F81431D7F80C31DA43D7F814311A4349
:1031E800D7F810315A4007F10803DB6A1A44D7F8B8
:1031F80008311A44434B1344C7F80831D7F808314B
:103208004FEAB353C7F80831D7F80821D7F8143173
:103218001344C7F80831D7F81031DA43D7F8083122
:103228001A43D7F814315A4007F108039B681A4427
:10323800D7F80C311A44344B1344C7F80C31D7F87B
:103248000C314FEA7343C7F80C31D7F80C21D7F883
:1032580008311344C7F80C31D7F81431DA43D7F8DA
:103268000C311A43D7F808315A4007F108035B6A52
:103278001A44D7F810311A44244B1344C7F81031B4
:10328800D7F810314FEAF323C7F81031D7F81021D7
:10329800D7F80C311344C7F810313B1D1B681A6866
:1032A800D7F814311A443B1D1B681A603B1D1B6874
:1032B80004333A1D126804321168D7F810210A4401
:1032C8001A603B1D1B6808333A1D126808321168E2
:1032D800D7F80C210A441A603B1D1B680C333A1DB1
:1032E80012680C321168D7F808210A441A6000BF26
:1032F80007F58C77BD4680BD144301A3A111084E84
:10330800827E53F735F23ABDBBD2D72A91D386EBEA
:1033180080B5A0B000AFF860B9607A6007F110031B
:103328001846FEF73FFD7A6807F11003B96818469A
:10333800FEF75CFD07F16C0207F110031146184611
:10334800FEF7C4FD1B4803F0B3F9002387F87F306C
:1033580024E097F87F3007F18002134413F8143CF7
:103368001946154803F0A4F997F87F3007F1800251
:10337800134413F8143C1A4607F168030E4918461B
:1033880003F016FA07F1680302221946F86803F0F9
:1033980058FA97F87F30013387F87F3097F87F30F5
:1033A8000F2BD6D9054803F0FBF900BF8037BD467F
:1033B80080BD00BF98B70008A4B70008ACB70008E4
:1033C80080B489B000AFF860B9607A600023BB614F
:1033D800BB687B617B680A2B04D07B6900221A706A
:1033E800BB6846E0FB68002B09D17B695A1C7A61EF
:1033F80030221A707B6900221A70BB6839E0FB68BA
:10340800002B07DA7B695A1C7A612D221A70FB6837
:103418005B42FB6042F21073FB6123E0FA68FB69D0
:1034280092FBF3F33B613B69002B02D1BB69002B94
:1034380010D07B695A1C7A613A69D2B23032D2B262
:103448001A703B69FA6902FB03F3FA68D31AFB6046
:103458000123BB61FB69094A82FB03129210DB1747
:10346800D31AFB61FB69002BD8DC7B6900221A7038
:10347800BB6818462437BD4680BC704767666666D9
:103488000EB480B58BB000AF786007F13803FB60ED
:103498008EE07B6B1B785C2B1DD17B6B01337B63D0
:1034A8007B6B1B786E2B09D0722B0FD10D2178689E
:1034B80002F0E6FB7B6B01337B6371E00A217868DD
:1034C80002F0DEFB7B6B01337B6369E07B6B0133CE
:1034D8007B6300BF64E07B6B1B78252B57D17B6B2C
:1034E80001337B637B6B1B78642B21D0732B49D111
:1034F800FB681A1DFA601B687B6211E07B6A1B7807
:103508009BB21946786802F0BBFB00BF802178683F
:1035180002F0D6FB0346002BF8D07B6A01337B62AE
:103528007B6A1B78002BE9D17B6B01337B6337E027
:10353800FB681A1DFA601B683B6207F110030A2238
:103548001946386AFFF73CFF07F110037B6211E068
:103558007B6A1B789BB21946786802F091FB00BF22
:103568008021786802F0ACFB0346002BF8D07B6A18
:1035780001337B627B6A1B78002BE9D17B6B0133BB
:103588007B630DE07B6B01337B6300BF08E07B6BE3
:103598005A1C7A631B789BB21946786802F070FB54
:1035A80000BF8021786802F08BFB0346002BF8D01F
:1035B8007B6B1B78002B7FF46CAF00BF2C37BD46AC
:1035C800BDE8804003B0704780B487B000AF786032
:1035D8003960254B3B610023FB600023BB6000235F
:1035E8007B6138E0FB685A1CFA607A6813443968D2
:1035F8003A69B1FBF2F2D2B23032D2B21A703B68F9
:103608003A69B3FBF2F2396901FB02F29B1A3B609B
:103618003B69164AA2FB0323DB083B61FB68013BBD
:103628007A6813441B78302B0CBF01230023DAB2CD
:10363800BB68002B0CBF01230023DBB21340DBB2B5
:10364800002B02D00023FB6002E0BB680133BB60A3
:103658007B6901337B617B69092BC3D900BF1C37A8
:10366800BD4680BC704700BF00CA9A3BCDCCCCCCCD
:1036780080B485B000AF78600023FB607B68BB60D6
:10368800BB68C3F30A03002B04D0BB68DB0A013311
:10369800FB6002E0BB68DB0AFB60FB681846143776
:1036A800BD4680BC7047000080B586B000AF78602A
:1036B8000B46FB7000237B610023FB6007F10803C6
:1036C80000210A461A800A469A700423FB747B6814
:1036D8001846FFF7CDFF0346013BFB6001F02EF9CA
:1036E80000237B611EE07B6903F580332033DB0216
:1036F800184601F043F90346FB74FB78012B0ED101
:103708007B6901331A4607F1080311461846FFF78B
:103718005BFF07F1080319460E4802F0C9FF7B69F1
:1037280001337B617A69FB689A4202D2FB7C042BE5
:10373800D9D001F015F97A69FB689A4202D1FB7C6D
:10374800042B01D0002300E0012318461837BD469A
:1037580080BD00BFB0B7000880B400AFBFF34F8F83
:103768000549054BDB6803F4E062044B1343CB6067
:10377800BFF34F8FFEE700BF00ED00E00400FA053D
:1037880080B58EB008AFF860B9607A60FB700E4BF8
:103798007B61FDF725FDFB783A6B0692FA6A059284
:1037A800BA6A04927A6A03923A6A029201937B682F
:1037B8000093BB68054A7969F86802F0F9FF00BF11
:1037C8001837BD4680BD00BFC4B70008A822002036
:1037D80080B588B006AF78603960FDF71FFD0B4BE8
:1037E80093F83C2A0A4B04930A4B03930A4B02931F
:1037F8000A4B01930A4B009313460A4A39687868C2
:10380800FFF7BEFF00BF0837BD4680BDF0060020A9
:10381800E0B7000808110020FC10002094220020C6
:10382800E4B700081411002080B588B002AFF86032
:10383800B9601346FB80084B7B61FDF7D1FCFB8820
:103848000093BB68054A7969F86802F0B1FF00BFC8
:103858001837BD4680BD00BFE8B70008A822002081
:1038680080B5A2B000AF78600B46FB7007F1080383
:1038780079681846FFF7ACFFFB7803F00F03002BBD
:1038880004D007F108031846FEF7F2F8FB7803F0B6
:10389800F003002B0AD007F108031A460549064829
:1038A80002F086FF0449054802F002FF00BF88378E
:1038B800BD4680BDF4B7000840110020FCB70008E1
:1038C80080B5A2B000AF78600B467B8013467B7052
:1038D8007A8807F1080379681846FFF7A5FF7B780F
:1038E80003F00F03002B04D007F108031846FEF776
:1038F800BFF87B7803F0F003002B0AD007F1080328
:103908001A460649064802F053FF0549054802F0E1
:10391800CFFE00BF8837BD4680BD00BFF4B70008A2
:1039280040110020FCB7000880B5A4B002AF0346E0
:10393800FB71FDF773FCFDF753FC07F10800124B10
:103948000093124B124A134902F032FFFB7903F03D
:103958000F03002B04D007F108031846FEF788F878
:10396800FB7903F0F003002B0AD007F108031A468D
:1039780009490A4802F01CFF0849094802F098FE64
:1039880000BF8837BD4680BD9422002004B80008D7
:10399800A822002008B80008F4B700084011002049
:1039A800FCB7000880B584B000AF00237B6000231B
:1039B8003B600123FB810223BB8104237B8101231C
:1039C8007B7201F0D1F938602A4B1A683B681A40BB
:1039D800284B1B689A4246D001F0BAF97860254B0B
:1039E8001A683B681343234A136000F0F9FF034643
:1039F8007B72204B1B68B3F1FF3F07D01D4B1B6840
:103A0800DB43184601F0CEF803467B727B6803F06F
:103A18000703072B1AD07B6803F00103002B01D1A1
:103A28000023FB817B6803F00203002B01D10023F4
:103A3800BB817B6803F00403002B01D100237B8149
:103A48007A89B989FB89184601F038F97B7A042B01
:103A580005D1094802F0A4FEFFF77EFE06E00748FC
:103A680002F09EFE02E0064802F09AFE00BF103700
:103A7800BD4680BD3411002014B8000830B80008D5
:103A880050B8000880B582B000AF0346FB8000F054
:103A980055FFBB1D012219460448FDF7C7FA00F07F
:103AA8005FFF00BF0837BD4680BD00BF00F80308B0
:103AB80080B500AF0248FDF78BFA0346184680BD73
:103AC80000F8030880B500AF044801F05DFF4FF42B
:103AD800E13002F0D1F900BF80BD00BF00380140DD
:103AE80080B500AFFFF7EEFFFDF77AFB074B1B78B9
:103AF800502B09D0FFF7DCFF03461A46044B1A8007
:103B08004EF6ED50FFF7BEFF00BF80BDA822002093
:103B18003E11002080B582B000AF1A4B1A681A4BCC
:103B28001340B3F1005F25D1184802F039FE01F0C7
:103B3800D1FA72B60021164801F0AAFE00211548F4
:103B480002F038F80021144802F034F8134B1B68CF
:103B5800134A1360124B1B681A46124B1A60094B22
:103B68001B687B607B6883F308880E4B1B6898474B
:103B7800002303E00C4802F013FEFF231846083721
:103B8800BD4680BD000001080000FE2F6CB800088B
:103B980000080040003801400044004004000108CB
:103BA800182300201C2300207CB8000880B500AF33
:103BB8003C4B10221A603B4B1B683D2B09D8394BF4
:103BC8001B68012202FA03F35B421A46364B1A605D
:103BD80003E0354B4FF000421A6001F0C5F8024689
:103BE800314B1B681A40304B1B689A4203D02F4B4D
:103BF80001221A6002E02D4B00221A602C4802F0C4
:103C0800CFFD2A4B1B68002B02D02A4802F0C8FDC2
:103C1800FF212948FFF724FE4FF4FA7002F0F8F864
:103C2800264BB3F83E3AC3F3C033DBB2002B17D0B0
:103C3800224AB2F83E3A6FF3CF33A2F83E3A204B0D
:103C48000F221A701F492048FDF76AFC1B4BD3F856
:103C5800083A184600F03EF80346002BD1D020E081
:103C68001A4BB3F80838C3F3C033DBB2002BC8D003
:103C7800164AB2F808386FF3CF33A2F80838104B59
:103C8800F0221A700F49124802F0E8F90F4BD3F8E6
:103C98000434184600F01EF80346002B00D1B0E7A4
:103CA80000BF80BD301100203411002038110020E1
:103CB80094B80008B0B80008B8B80008F0060020AA
:103CC80042120020BCB80008F00A00204812002068
:103CD8005016002080B582B000AF786002225549A6
:103CE800786802F0C3FC0346002B05D14EF6EE605F
:103CF800FFF7C8FE012398E002224F49786802F0D6
:103D0800B5FC0346002B05D14DF6DD50FFF7BAFE92
:103D180001238AE002224949786802F0A7FC034699
:103D2800002B05D14CF6CC40FFF7ACFE01237CE01C
:103D380002224349786802F099FC0346002B06D119
:103D48004FF6FF70FFF79EFEFFF706FD6CE00222BC
:103D58003C49786802F08AFC0346002B28D13A4B8C
:103D68001B780F2B17D13949394802F0A1FC374885
:103D7800FDF762FAFDF744FD4FF4FA730022354966
:103D88003548FDF709FC4FF4FA73002231493348EE
:103D9800FDF702FC06E03249324802F089FC30485F
:103DA800FDF74AFA45F65A20FFF76CFE01233CE07E
:103DB80002222D49786802F059FC0346002B05D1F0
:103DC8004FF6FF70FFF75EFE01232EE0022227491F
:103DD800786802F04BFC0346002B02D1FFF7E2FDA6
:103DE80022E002222249786802F040FC0346002BB8
:103DF80009D14EF6ED50FFF745FEF0211D48FFF7BB
:103E08002FFD012311E002221B49786802F02EFCE5
:103E18000346002B05D14DF6DE60FFF733FE012384
:103E280003E0164802F0BCFC002318460837BD46DC
:103E380080BD00BFC0B80008C4B80008C8B80008F2
:103E4800CCB80008D0B8000842120020F40E0020B8
:103E5800D4B80008E8B80008ECB80008F8B80008BA
:103E68005018002004B9000818B900081CB9000847
:103E780020B9000824B9000828B900082CB900089E
:103E8800B0B59CB002AF00237B660023A7F8623070
:103E98000023A7F854300023A7F860303B1D2022E8
:103EA8000021184602F0FCFB002387F8533000235A
:103EB800BB650023FB640023A7F84A309F4802F043
:103EC8006FFC9F4B01221A709E4B1B7819469E4827
:103ED800FFF7C6FC4FF4FA7001F09AFF9B4BB3F85A
:103EE8003E3AC3F3C033DBB2002B7DD0974AB2F819
:103EF8003E3A6FF3CF33A2F83E3A95499548FDF71D
:103F08000FFB924BD3F8083A02229349184602F065
:103F1800ADFB0346002BD7D19049914802F0C0FC75
:103F280078647B6C002B06D08E4A7B6C1360FDF79F
:103F380065F9FDF773F98949002002F0B1FC78644E
:103F48007B6C002B04D0786C02F068FB034600E021
:103F580000237B668149002002F0A2FC78647B6C18
:103F6800002B05D0786C02F055FB03469BB200E0AD
:103F78000023A7F862307949002002F091FC7864A8
:103F88007B6C002B0DD07B6C07F124041D46286840
:103F98006968AA68EB680FC428696969AA69EB6946
:103FA8000FC4704B1B68002B13D07B6E002B10D0F6
:103FB800B7F86230002B0CD06A4B1968B7F862204A
:103FC80007F12403009313467A6E674802F070FBEA
:103FD80092E05C4B1B7819466448FFF741FC584B4C
:103FE80000221A70002325E3614BB3F80838C3F3A5
:103FF800C033DBB2002B3FF467AF5D4AB2F8083834
:104008006FF3CF33A2F8083851495A4802F026F81E
:10401800574BD3F8043402224F49184602F026FBC6
:104028000346002B7FF450AF4C49534802F038FC4C
:1040380078647B6C002B06D04A4A7B6C1360FDF7D2
:10404800DDF8FDF7EBF84549002002F029FC78641B
:104058007B6C002B04D0786C02F0E0FA034600E099
:1040680000237B663D49002002F01AFC78647B6CD3
:10407800002B05D0786C02F0CDFA03469BB200E025
:104088000023A7F862303549002002F009FC786463
:104098007B6C002B0DD07B6C07F124041D4628682F
:1040A8006968AA68EB680FC428696969AA69EB6935
:1040B8000FC42C4B1B68002B13D07B6E002B10D029
:1040C800B7F86230002B0CD0264B1968B7F862207D
:1040D80007F12403009313467A6E234802F0E8FAA6
:1040E8000AE0184B1B7819462048FFF7B9FB144B18
:1040F80000221A7000239DE2B7F862207B6E93FBC2
:10410800F2F102FB01F29B1A002B06D1B7F86230DC
:104118007A6E92FBF3F39BB207E0B7F862307A6EDF
:1041280092FBF3F39BB201339BB2A7F8543000F033
:10413800B1FA0023A7F860300CE200BF3CB90008D0
:104148003C110020421200204CB90008F006002063
:10415800BCB80008F00A002050B9000854B900089B
:10416800F40E0020901A002058B9000884B90008FD
:10417800481200205016002050180020A44B1A782E
:10418800B7F860301946A348FFF79AFB00BFA24B67
:10419800B3F83E3AC3F3C033DBB2002B07D19F4BD1
:1041A800B3F80838C3F3C033DBB2002BEFD00023D9
:1041B80087F85330984BB3F83E3AC3F3C033DBB2B9
:1041C800002B00F0CD80944AB2F83E3A6FF3CF331B
:1041D800A2F83E3A92499348FDF7A2F98E4BD3F8DC
:1041E800083A02229049184602F040FA0346002B8A
:1041F80040F0AB818D498E4802F052FB03461846C9
:1042080002F008FA0346A7F84A30B7F84A20B7F888
:1042180060309A4240F09981854BBB6502E0BB6DE6
:104228000133BB65BB6D1B78282BF8D1BB6D0133FF
:10423800BB657B49B86D02F033FBF864F86C02F09B
:10424800E9F90346DAB27B4B1A70B7F86010794B7C
:104258001B781A46784802F02BFA784B01221A800C
:104268001DE06F49002002F01BFBF864734B1B88AC
:104278001C46F86C02F0CEF90346DAB26D4B1A55BB
:104288006E4B1B881A466B4B9B5C19466C4802F0B8
:104298000FFA6A4B1B8801339AB2684B1A80674B36
:1042A8001B88B7F862209A42DBD8664802F078FA91
:1042B800604A654B1A60B7F86020B7F85430013B84
:1042C8009A4280F242810023FB6538E000F036FB19
:1042D8005E4B1A685C4B1B681B681946104600F059
:1042E800E9FB00F03DFB594B1B681A68564B1B68ED
:1042F8001B689A4216D0554B1B681946544802F061
:10430800D7F94FF47A7001F083FD4FF47A7001F019
:104318007FFD4FF47A7001F07BFD4E4B00221A703E
:10432800002387E1494B1B680433484A1360464B16
:104338001B680433444A1360FB6D0433FB65B7F80C
:104348006220FB6D9A4240F200817B6E03F10063AC
:1043580003F580331A463D4B1B689A42B6D8F4E001
:104368002E4BB3F80838C3F3C033DBB2002B00F090
:10437800EC802A4AB2F808386FF3CF33A2F808382D
:104388002749354801F06AFE244BD3F80434022249
:104398002549184602F06AF90346002B40F0D580FB
:1043A80022492E4802F07CFA0346184602F032F9F8
:1043B8000346A7F84A30B7F84A20B7F860309A425F
:1043C80040F0C380254BBB6502E0BB6D0133BB6584
:1043D800BB6D1B78282BF8D1BB6D0133BB65104929
:1043E800B86D02F05DFAF864F86C02F013F9034650
:1043F800DAB2104B1A70B7F860100E4B1B781A46D9
:104408000D4802F055F90D4B01221A8046E000BF15
:1044180042120020E0B70008F006002048120020F1
:10442800BCB80008F00A002088B9000854B9000890
:10443800F40E0020C01100208CB9000840120020A2
:10444800A0B90008A8B900081423002044000020DF
:10445800ACB900083C11002050160020501800206C
:104468007649002002F01CFAF864754B1B881C463C
:10447800F86C02F0CFF80346DAB2724B1A55704B5B
:104488001B881A466F4B9B5C19466F4802F010F95F
:104498006B4B1B8801339AB2694B1A80684B1B8897
:1044A800B7F862209A42DBD8684802F079F9654A81
:1044B800674B1A600023FB6538E000F03FFA654B54
:1044C8001A68634B1B681B681946104600F0F2FA1D
:1044D80000F046FA5F4B1B681A685D4B1B681B6847
:1044E8009A4216D05B4B1B6819465B4802F0E0F80D
:1044F8004FF47A7001F08CFC4FF47A7001F088FC6C
:104508004FF47A7001F084FC544B00221A70002397
:1045180090E0504B1B6804334E4A13604C4B1B68A9
:1045280004334B4A1360FB6D0433FB65B7F8622014
:10453800FB6D9A4209D97B6E03F1006303F5803362
:104548001A46444B1B689A42B7D8B7F86030013313
:10455800A7F86030B7F86020B7F854309A42FFF4F3
:104568000DAE3B1D802237491846FEF7D1FE3B1D94
:1045780019463B4802F09CF8002387F8573051E071
:1045880097F85730013387F85730364B1B78184661
:10459800FFF7CAF94FF4FA7001F03AFC324BB3F85E
:1045A8003E3AC3F3C033DBB2002B19D02E4AB2F81F
:1045B8003E3A6FF3CF33A2F83E3A20492B48FCF736
:1045C800AFFF294BD3F8083A02222949184602F0CE
:1045D8004DF80346002B25D1264802F0E1F825E0E6
:1045E800254BB3F80838C3F3C033DBB2002B19D01E
:1045F800214AB2F808386FF3CF33A2F808380F49C8
:104608001E4801F02BFD1C4BD3F804340222184934
:10461800184602F02BF80346002B03D1154802F088
:10462800BFF803E097F85730092BA9D90B4B0022A4
:104638001A70012318466837BD46B0BDBCB80008DB
:1046480040120020C0110020A0B90008A8B9000835
:104658001423002044000020ACB900083C110020BD
:10466800D0B9000842120020F0060020F00A00200D
:10467800F8B90008FCB900084812002050160020BC
:1046880080B500AF024802F08BF80023184680BDC1
:104698001CBA000880B582B000AF3B1D00210A4655
:1046A8001A800A469A703B1D60211846FEF78CFF57
:1046B8003B1D1946094801F0FBFF01214FF440302A
:1046C800FEF7F2FF0346002B01D0002301E04FF074
:1046D800FF3318460837BD4680BD00BF38BA00080A
:1046E80080B582B000AF06E0254802F059F84FF4D3
:1046F800FA7001F08DFB234BB3F80838C3F3C033CD
:10470800DBB2002BF0D01F4B7B6002E07B680133EB
:104718007B607B681B785B2BF8D17B6801337B60FF
:104728001949786802F0BCF80246184B1A60174B12
:104738001B681946164801F0BBFFFCF741FDFCF762
:104748004FFD104AB2F808386FF3CF33A2F8083893
:104758004FF6FF70FFF796F90E4B1B889BB2002BA4
:1047680008D00C4B1B889BB21846FFF78BF9094BF6
:1047780000221A80002318460837BD4680BD00BFB6
:1047880050BA0008481200205CBA0008EC06002065
:1047980060BA00083E11002080B500AFFCF720FD8C
:1047A8000249034801F084FF00BF80BDA822002011
:1047B80078BA000880B483B000AF7860054A7B6897
:1047C80043F0BF6343F40033D36000BF0C37BD46EA
:1047D80080BC704700ED00E080B487B000AF78601F
:1047E80000237B6100233B610F23FB607B68DB7840
:1047F800002B3AD0274BDB68DB431B0A03F0070387
:104808007B617B69C3F104033B61FA687B6922FA27
:1048180003F3FB607B685B781A463B6902FA03F393
:104828007B617B689B781A46FB6813407A6913435F
:104838007B617B691B017B61174A7B681B787969FF
:10484800C9B213440A4683F80023134A7B681B78CD
:104858005B09DBB218467B681B7803F01F03012154
:1048680001FA03F342F820300FE00B497B681B780C
:104878005B09DBB218467B681B7803F01F03012233
:104888009A4000F1200341F8232000BF1C37BD46A1
:1048980080BC704700ED00E000E100E080B483B028
:1048A80000AF78607B68042B06D1094A084B1B6867
:1048B80043F00403136005E0054A054B1B6823F029
:1048C8000403136000BF0C37BD4680BC704700BFAF
:1048D80010E000E080B485B000AF78600023FB6092
:1048E800094B1B68FB60FB6803F03803FB60FA6840
:1048F8007B681343FB60044AFB68136000BF1437EE
:10490800BD4680BC704700BF0020024080B483B021
:1049180000AF7860084A084B1B6823F01003136047
:104928000549054B1A687B6813430B6000BF0C37B9
:10493800BD4680BC704700BF0020024080B400AF75
:10494800044B054A5A60034B044A5A6000BFBD46EF
:1049580080BC70470020024023016745AB89EFCD3A
:1049680080B400AF044A044B1B6943F08003136111
:1049780000BFBD4680BC70470020024080B584B0AF
:1049880000AF78600423FB734FF4302000F038FA4E
:104998000346FB73FB7B042B1BD1104A0F4B1B698F
:1049A80043F0020313610D4A7B6853610B4A0B4BBA
:1049B8001B6943F0400313614FF4302000F020FAE4
:1049C8000346FB730549054B1A6941F6FD7313400D
:1049D8000B61FB7B18461037BD4680BD00200240A6
:1049E80080B582B000AFA523FB8004237B7100F063
:1049F800C5F90346002B01D00023FB804FF430207B
:104A080000F0FEF903467B717B79042B45D1254BD9
:104A1800254A9A60234B254A9A60224A214B1B69F2
:104A280043F0200313611F4A1E4B1B6943F04003E8
:104A380013614FF4302000F0E3F903467B717B7972
:104A4800042B20D11749174B1A6941F6DF7313401D
:104A58000B61144A134B1B6943F010031361144A8A
:104A6800FB8813804FF4005000F0CAF903467B71AD
:104A78007B79052B11D00B490A4B1A6941F6EF7364
:104A880013400B6109E07B79052B06D00549054BDE
:104A98001A6941F6EF7313400B617B7918460837A2
:104AA800BD4680BD0020024023016745AB89EFCD9C
:104AB80000F8FF1F80B584B000AF78603960042328
:104AC800FB730023BB604FF4005000F099F90346D4
:104AD800FB73FB7B042B30D11A4A1A4B1B6943F03A
:104AE800010313617B683A6892B21A804FF4005050
:104AF80000F086F90346FB73FB7B042B16D17B6819
:104B08000233BB60BB681A463B681B0C9BB2138020
:104B18004FF4005000F074F90346FB730949094B40
:104B28001A6941F6FE7313400B6106E00549054B0F
:104B38001A6941F6FE7313400B61FB7B1846103768
:104B4800BD4680BD0020024080B584B000AF7860CB
:104B58000B467B800423FB734FF4005000F050F9A0
:104B68000346FB73FB7B042B15D10D4A0C4B1B69C9
:104B780043F0010313617B687A881A804FF4005070
:104B880000F03EF90346FB730549054B1A6941F6E7
:104B9800FE7313400B61FB7B18461037BD4680BD82
:104BA8000020024080B586B000AF78604FF6FF73F2
:104BB800BB824FF6FF737B824FF6FF733B824FF643
:104BC800FF73FB810423FB757B68DB437B607B6899
:104BD8009BB2DBB2BB827B681B0A9BB2DBB27B82D7
:104BE8007B681B0C9BB2DBB23B827B681B0EFB8194
:104BF8004FF4005000F004F90346FB75FB7D042BCD
:104C08004ED12A4B2A4A9A60284B2A4A9A60274A48
:104C1800264B1B6943F010031361BB8AFF2B08D096
:104C2800254ABB8A13814FF4005000F0E9F8034687
:104C3800FB75FB7D042B0BD17B8AFF2B08D01E4A0A
:104C48007B8A53814FF4005000F0DAF80346FB7575
:104C5800FB7D042B0BD13B8AFF2B08D0164A3B8ADD
:104C680093814FF4005000F0CBF80346FB75FB7DB1
:104C7800042B0BD1FB89FF2B08D00F4AFB89D3816A
:104C88004FF4005000F0BCF80346FB75FB7D052B84
:104C980006D00649054B1A6941F6EF7313400B61BC
:104CA800FB7D18461837BD4680BD00BF0020024076
:104CB80023016745AB89EFCD00F8FF1F80B584B0AD
:104CC80000AF0346FB800B46BB8013467B80042362
:104CD800FB731B4B1B4A9A60194B1B4A9A604FF493
:104CE800005000F08DF80346FB73FB7B042B21D1A9
:104CF800134A134B1B6943F01003136113497A8855
:104D0800BB8813439AB2FB8813439BB243F0F80362
:104D18009BB24B804FF4005000F072F80346FB73CF
:104D2800FB7B052B06D00649054B1A6941F6EF7344
:104D380013400B61FB7B18461037BD4680BD00BF92
:104D48000020024023016745AB89EFCD00F8FF1F23
:104D580080B400AF034BDB699B081846BD4680BC96
:104D6800704700BF0020024080B400AF024B1B6AAE
:104D78001846BD4680BC70470020024080B483B00E
:104D880000AF0023FB71084BDB6903F00203002B23
:104D980002D00123FB7101E00023FB71FB79184667
:104DA8000C37BD4680BC70470020024080B483B0F9
:104DB80000AF0423FB71114BDB6803F00103012BE7
:104DC80002D10123FB7113E00C4BDB6803F00403F1
:104DD800002B02D00223FB710AE0084BDB6803F0CA
:104DE8001003002B02D00323FB7101E00423FB71A5
:104DF800FB7918460C37BD4680BC7047002002403E
:104E080080B584B000AF78600423FB73FFF7CEFF52
:104E18000346FB7306E0FFF7C9FF0346FB737B6895
:104E2800013B7B60FB7B012B02D17B68002BF2D11D
:104E38007B68002B01D10523FB73FB7B18461037D9
:104E4800BD4680BD80B489B000AF7860396000236A
:104E5800FB6100233B610023BB610023FB6000234F
:104E68007B610023BB603B68DB7803F00F03FB61C9
:104E78003B68DB7803F01003002B05D03B689B7878
:104E88001A46FB691343FB613B681B88DBB2002BA6
:104E980044D07B681B687B610023BB6138E001223A
:104EA800BB6902FA03F3FB603B681B881A46FB6880
:104EB80013403B613A69FB689A4226D1BB699B0063
:104EC800FB600F22FB6802FA03F3BB60BB68DB439D
:104ED8007A6913407B61FA69FB6802FA03F37A691D
:104EE80013437B613B68DB78282B05D10122BB6922
:104EF8009A407B685A6108E03B68DB78482B04D10C
:104F08000122BB699A407B681A61BB690133BB61A6
:104F1800BB69072BC3D97B687A691A603B681B8811
:104F2800FF2B46D97B685B687B610023BB613AE055
:104F3800BB690833012202FA03F3FB603B681B8854
:104F48001A46FB6813403B613A69FB689A4227D1CD
:104F5800BB699B00FB600F22FB6802FA03F3BB608E
:104F6800BB68DB437A6913407B61FA69FB6802FA24
:104F780003F37A6913437B613B68DB78282B05D1FF
:104F8800BB69083301229A407B685A613B68DB7829
:104F9800482B05D1BB69083301229A407B681A6106
:104FA800BB690133BB61BB69072BC1D97B687A69CF
:104FB8005A6000BF2437BD4680BC704780B483B0B8
:104FC80000AF78600B467B807A887B681A6100BFE7
:104FD8000C37BD4680BC704780B483B000AF7860A2
:104FE8000B467B807A887B685A6100BF0C37BD46C8
:104FF80080BC704780B487B000AF78600B46FB7008
:1050080000233B610023FB6000237B610023BB601E
:105018007B68002B03DA2E4BDB697B6102E02C4BAB
:105028005B687B617B681B0C03F00F03BB607B68CC
:105038009BB23B617B6803F44013B3F5401F0AD170
:105048007B6923F070637B61214A214B5B6823F005
:105058007063536021E07B6803F48013002B0ED04B
:105068000322BB6802FA03F3FB60FB68DB437A693F
:1050780013407B617B6943F070637B610DE07B6863
:105088005B0D1B013A6902FA03F3DB437A691340AB
:105098007B617B6943F070637B61FB78002B08D0F0
:1050A8007B685B0D1B013A6902FA03F37A691343C3
:1050B8007B617B68002B03DA054A7B69D36102E0D8
:1050C800034A7B69536000BF1C37BD4680BC7047EC
:1050D8000000014080B400AF134A134B1B6843F033
:1050E800010313601049104B5A68104B13404B6072
:1050F8000D4A0D4B1B6823F0847323F4803313602F
:10510800094A094B1B6823F480231360064A064B9F
:105118005B6823F4FE035360034B4FF41F029A604D
:1051280000BFBD4680BC7047001002400000FFF879
:1051380080B483B000AF0346FB71044AFB79136067
:1051480000BF0C37BD4680BC704700BF000042421C
:1051580080B485B000AF786039600023FB600A4BEB
:105168005B68FB60FB6823F47C13FB607A683B6830
:105178001343FA681343FB60034AFB68536000BF9C
:105188001437BD4680BC70470010024080B483B01D
:1051980000AF0346FB71044AFB79136000BF0C376C
:1051A800BD4680BC704700BF6000424280B485B0F5
:1051B80000AF78600023FB60094B5B68FB60FB680D
:1051C80023F00303FB60FA687B681343FB60044A1F
:1051D800FB68536000BF1437BD4680BC704700BFF2
:1051E8000010024080B400AF044B5B68DBB203F0F0
:1051F8000C03DBB21846BD4680BC70470010024065
:1052080080B485B000AF78600023FB60094B5B6811
:10521800FB60FB6823F0F003FB60FA687B681343CC
:10522800FB60044AFB68536000BF1437BD4680BC6E
:10523800704700BF0010024080B485B000AF7860AE
:105248000023FB60094B5B68FB60FB6823F4E063A9
:10525800FB60FA687B681343FB60044AFB68536091
:1052680000BF1437BD4680BC704700BF0010024025
:1052780080B485B000AF78600023FB60094B5B68A1
:10528800FB60FB6823F46053FB607B68DB00FA6813
:105298001343FB60034AFB68536000BF1437BD46E5
:1052A80080BC70470010024080B487B000AF7860BF
:1052B80000237B6100233B610023FB600023BB606C
:1052C8004C4B5B6803F00C037B617B69042B07D0B4
:1052D800082B09D0002B33D17B68474A1A6033E08A
:1052E8007B68454A1A602FE0424B5B6803F47013F1
:1052F8003B61404B5B6803F48033FB603B699B0C6C
:1053080002333B61FB68002B06D13B693B4A02FB39
:1053180003F27B681A6017E0364B5B6803F40033CE
:10532800002B06D03B69354A02FB03F27B681A6002
:105338000AE03B69304A02FB03F27B681A6003E02B
:105348007B682D4A1A6000BF2A4B5B6803F0F003A4
:105358007B617B691B097B61294A7B6913441B7844
:10536800DBB2BB607B681A68BB68DA407B685A604E
:10537800204B5B6803F4E0637B617B691B0A7B61FC
:105388001F4A7B6913441B78DBB2BB607B685A6891
:10539800BB68DA407B689A60164B5B6803F460531D
:1053A8007B617B69DB0A7B61154A7B6913441B7847
:1053B800DBB2BB607B685A68BB68DA407B68DA603E
:1053C8000C4B5B6803F440437B617B699B0B7B61FF
:1053D8000C4A7B6913441B78DBB2BB607B68DA68D4
:1053E800BB68B2FBF3F27B681A6100BF1C37BD468D
:1053F80080BC70470010024000127A0000093D008E
:10540800480000205800002080B483B000AF7860C6
:105418000B46FB70FB78002B06D00949084B9A69AC
:105428007B6813438B6106E00549054B9A697B68E5
:10543800DB4313408B6100BF0C37BD4680BC70470F
:105448000010024080B483B000AF78600B46FB7058
:10545800FB78002B06D00949084BDA697B681343AF
:10546800CB6106E00549054BDA697B68DB431340ED
:10547800CB6100BF0C37BD4680BC704700100240AE
:1054880080B483B000AF78600B46FB70FB78002BCC
:1054980006D00949084BDA687B681343CB6006E0FD
:1054A8000549054BDA687B68DB431340CB6000BFD6
:1054B8000C37BD4680BC70470010024080B483B0F2
:1054C80000AF78600B46FB70FB78002B06D00949CB
:1054D800084B1A697B6813430B6106E00549054BC5
:1054E8001A697B68DB4313400B6100BF0C37BD466C
:1054F80080BC70470010024080B487B000AF0346FC
:10550800FB710023FB6000237B610023FB74FB79A4
:105518005B09DBB2FB60FB68012B03D1124B1B68F4
:105528007B6109E0FB68022B03D10F4B1B6A7B618F
:1055380002E00D4B5B6A7B61FB7903F01F03FB60A4
:105548007A69FB6822FA03F303F00103002B02D007
:105558000123FB7401E00023FB74FB7C18461C3715
:10556800BD4680BC704700BF0010024080B582B0C5
:1055780000AF78607B68784A93420AD101214FF4E2
:105588000060FFF77DFF00214FF40060FFF778FF10
:10559800DEE07B68B3F1804F08D101210120FFF7DD
:1055A8008DFF00210120FFF789FFD1E07B686B4A5E
:1055B800934208D101210220FFF780FF0021022039
:1055C800FFF77CFFC4E07B68654A934208D101215C
:1055D8000420FFF773FF00210420FFF76FFFB7E0F7
:1055E8007B68604A934208D101210820FFF766FFD3
:1055F80000210820FFF762FFAAE07B685A4A93421D
:1056080008D101211020FFF759FF00211020FFF7D2
:1056180055FF9DE07B68554A934208D1012120201F
:10562800FFF74CFF00212020FFF748FF90E07B6840
:105638004F4A93420AD101214FF40050FFF720FF4F
:1056480000214FF40050FFF71BFF81E07B68494AB7
:1056580093420AD101214FF40020FFF711FF0021E6
:105668004FF40020FFF70CFF72E07B68424A934238
:105678000AD101214FF48010FFF702FF00214FF4F7
:105688008010FFF7FDFE63E07B683C4A93420AD135
:1056980001214FF40010FFF7F3FE00214FF4001032
:1056A800FFF7EEFE54E07B68354A934208D10121AA
:1056B8004020FFF703FF00214020FFF7FFFE47E0EF
:1056C8007B68304A934208D101218020FFF7F6FE1B
:1056D80000218020FFF7F2FE3AE07B682A4A9342D5
:1056E8000AD101214FF48070FFF7E8FE00214FF442
:1056F8008070FFF7E3FE2BE07B68244A93420AD1CF
:1057080001214FF48030FFF7BBFE00214FF48030B9
:10571800FFF7B6FE1CE07B681D4A93420AD10121BF
:105728004FF40030FFF7ACFE00214FF40030FFF7D4
:10573800A7FE0DE07B68174A934209D101214FF477
:105748008020FFF79DFE00214FF48020FFF798FE90
:1057580000BF0837BD4680BD002C01400004004052
:1057680000080040000C00400010004000140040F9
:1057780000340140004C01400050014000540140F9
:1057880000180040001C004000200040004001407C
:10579800004401400048014080B485B000AF786003
:1057A80039600023FB817B681B88FB817B682E4A5C
:1057B800934213D07B682D4A93420FD07B68B3F194
:1057C800804F0BD07B682A4A934207D07B68294ACE
:1057D800934203D07B68284A934208D1FB8923F07F
:1057E8007003FB813B685A88FB891343FB817B6804
:1057F800224A93420CD07B68214A934208D0FB8905
:1058080023F44073FB813B68DA88FB891343FB81EF
:105818007B68FA891A803B689A887B689A853B6816
:105828001A887B681A857B680F4A93420FD07B6879
:105838000E4A93420BD07B68124A934207D07B688A
:10584800114A934203D07B68104A934204D13B68C3
:105858001B7A9AB27B681A867B6801229A8200BFFB
:105868001437BD4680BC7047002C0140003401400D
:105878000004004000080040000C004000100040F8
:10588800001400400040014000440140004801402D
:1058980080B483B000AF78600B46FB70FB78002BB8
:1058A80008D07B681B889BB243F001039AB27B68DF
:1058B8001A8007E07B681B889BB223F001039AB229
:1058C8007B681A8000BF0C37BD4680BC704780B427
:1058D80083B000AF78600B467B8013467B707B7883
:1058E800002B08D07B689B899AB27B8813439AB2B5
:1058F8007B689A8109E07B689B899AB27B88DB4345
:105908009BB213409AB27B689A8100BF0C37BD46A0
:1059180080BC704780B485B000AF78600B467B8050
:105928000023FB730023BB8100237B817B681B8AD8
:105938009AB27B881340BB817B689B899AB27B882B
:1059480013407B81BB89002B05D07B89002B02D0BB
:105958000123FB7301E00023FB73FB7B184614371C
:10596800BD4680BC704780B483B000AF78600B46FA
:105978007B807B88DB439AB27B681A8200BF0C3736
:10598800BD4680BC7047000080B582B000AF78602B
:105998007B68264A93420AD101214FF48040FFF7E1
:1059A8006FFD00214FF48040FFF76AFD3AE07B6805
:1059B8001F4A93420AD101214FF40030FFF77EFDC0
:1059C80000214FF40030FFF779FD2BE07B68194A7E
:1059D80093420AD101214FF48020FFF76FFD002187
:1059E8004FF48020FFF76AFD1CE07B68124A93425F
:1059F8000AD101214FF40020FFF760FD00214FF488
:105A08000020FFF75BFD0DE07B680C4A934209D14B
:105A180001214FF48010FFF751FD00214FF4801051
:105A2800FFF74CFD00BF0837BD4680BD0038014078
:105A38000044004000480040004C00400050004036
:105A480080B58CB000AF786039600023FB6200231A
:105A5800BB6200237B6200233B620023FB617B68FF
:105A6800FB617B681B8A9BB2FB62FA6A4CF6FF7388
:105A78001340FB623B68DB881A46FB6A1343FB62F0
:105A8800FB6A9AB27B681A827B689B899BB2FB622D
:105A9800FA6A4EF6F3131340FB623B689A883B6838
:105AA8001B8913439AB23B685B8913439BB21A461E
:105AB800FB6A1343FB62FB6A9AB27B689A817B6834
:105AC8009B8A9BB2FB62FA6A4FF6FF431340FB6264
